{
  "contractName": "SenCoinCrowdsale",
  "abi": [
    {
      "constant": true,
      "inputs": [],
      "name": "deadline",
      "outputs": [
        {
          "name": "",
          "type": "uint256"
        }
      ],
      "payable": false,
      "stateMutability": "view",
      "type": "function"
    },
    {
      "constant": true,
      "inputs": [],
      "name": "beneficiary",
      "outputs": [
        {
          "name": "",
          "type": "address"
        }
      ],
      "payable": false,
      "stateMutability": "view",
      "type": "function"
    },
    {
      "constant": true,
      "inputs": [],
      "name": "tokenReward",
      "outputs": [
        {
          "name": "",
          "type": "address"
        }
      ],
      "payable": false,
      "stateMutability": "view",
      "type": "function"
    },
    {
      "constant": true,
      "inputs": [
        {
          "name": "",
          "type": "address"
        }
      ],
      "name": "balanceOf",
      "outputs": [
        {
          "name": "",
          "type": "uint256"
        }
      ],
      "payable": false,
      "stateMutability": "view",
      "type": "function"
    },
    {
      "constant": true,
      "inputs": [],
      "name": "fundingGoal",
      "outputs": [
        {
          "name": "",
          "type": "uint256"
        }
      ],
      "payable": false,
      "stateMutability": "view",
      "type": "function"
    },
    {
      "constant": true,
      "inputs": [],
      "name": "amountRaised",
      "outputs": [
        {
          "name": "",
          "type": "uint256"
        }
      ],
      "payable": false,
      "stateMutability": "view",
      "type": "function"
    },
    {
      "constant": true,
      "inputs": [],
      "name": "price",
      "outputs": [
        {
          "name": "",
          "type": "uint256"
        }
      ],
      "payable": false,
      "stateMutability": "view",
      "type": "function"
    },
    {
      "inputs": [
        {
          "name": "ifSuccessfulSendTo",
          "type": "address"
        },
        {
          "name": "fundingGoalInEthers",
          "type": "uint256"
        },
        {
          "name": "durationInMinutes",
          "type": "uint256"
        },
        {
          "name": "etherCostOfEachToken",
          "type": "uint256"
        },
        {
          "name": "addressOfTokenUsedAsReward",
          "type": "address"
        }
      ],
      "payable": false,
      "stateMutability": "nonpayable",
      "type": "constructor"
    },
    {
      "payable": true,
      "stateMutability": "payable",
      "type": "fallback"
    },
    {
      "anonymous": false,
      "inputs": [
        {
          "indexed": false,
          "name": "recipient",
          "type": "address"
        },
        {
          "indexed": false,
          "name": "totalAmountRaised",
          "type": "uint256"
        }
      ],
      "name": "GoalReached",
      "type": "event"
    },
    {
      "anonymous": false,
      "inputs": [
        {
          "indexed": false,
          "name": "backer",
          "type": "address"
        },
        {
          "indexed": false,
          "name": "amount",
          "type": "uint256"
        },
        {
          "indexed": false,
          "name": "isContribution",
          "type": "bool"
        }
      ],
      "name": "FundTransfer",
      "type": "event"
    },
    {
      "constant": false,
      "inputs": [],
      "name": "checkGoalReached",
      "outputs": [],
      "payable": false,
      "stateMutability": "nonpayable",
      "type": "function"
    },
    {
      "constant": false,
      "inputs": [],
      "name": "safeWithdrawal",
      "outputs": [],
      "payable": false,
      "stateMutability": "nonpayable",
      "type": "function"
    }
  ],
  "bytecode": "0x60806040526007805461ffff1916905534801561001b57600080fd5b5060405160a0806105b08339810160409081528151602083015191830151606084015160809094015160008054600160a060020a0319908116600160a060020a03958616178255670de0b6b3a7640000958602600155603c90930242016003559390940260045560058054909116919093161790915561050f9081906100a190396000f3006080604052600436106100985763ffffffff7c010000000000000000000000000000000000000000000000000000000060003504166301cb3b2081146101be57806329dcb0cf146101d557806338af3eed146101fc5780636e66f6e91461022d57806370a08231146102425780637a3a0e84146102635780637b3e5e7b14610278578063a035b1fe1461028d578063fd6b7ef8146102a2575b600754600090610100900460ff16156100b057600080fd5b5033600081815260066020526040902080543490810190915560028054820190556005546004549192600160a060020a039091169163a9059cbb9190848115156100f657fe5b046040518363ffffffff167c01000000000000000000000000000000000000000000000000000000000281526004018083600160a060020a0316600160a060020a0316815260200182815260200192505050600060405180830381600087803b15801561016257600080fd5b505af1158015610176573d6000803e3d6000fd5b5050604080513381526020810185905260018183015290517fe842aea7a5f1b01049d752008c53c52890b1a6daf660cf39e8eec506112bbdf69350908190036060019150a150005b3480156101ca57600080fd5b506101d36102b7565b005b3480156101e157600080fd5b506101ea610336565b60408051918252519081900360200190f35b34801561020857600080fd5b5061021161033c565b60408051600160a060020a039092168252519081900360200190f35b34801561023957600080fd5b5061021161034b565b34801561024e57600080fd5b506101ea600160a060020a036004351661035a565b34801561026f57600080fd5b506101ea61036c565b34801561028457600080fd5b506101ea610372565b34801561029957600080fd5b506101ea610378565b3480156102ae57600080fd5b506101d361037e565b60035442106103345760015460025410610324576007805460ff1916600117905560005460025460408051600160a060020a039093168352602083019190915280517fec3f991caf7857d61663fd1bba1739e04abd4781238508cde554bb849d790c859281900390910190a15b6007805461ff0019166101001790555b565b60035481565b600054600160a060020a031681565b600554600160a060020a031681565b60066020526000908152604090205481565b60015481565b60025481565b60045481565b60035460009042106104e05760075460ff16151561042d57503360009081526006602052604081208054908290559081111561042d57604051339082156108fc029083906000818181858888f193505050501561041a57604080513381526020810183905260008183015290517fe842aea7a5f1b01049d752008c53c52890b1a6daf660cf39e8eec506112bbdf69181900360600190a161042d565b3360009081526006602052604090208190555b60075460ff1680156104495750600054600160a060020a031633145b156104e05760008054600254604051600160a060020a039092169281156108fc029290818181858888f19350505050156104d5576000805460025460408051600160a060020a03909316835260208301919091528181019290925290517fe842aea7a5f1b01049d752008c53c52890b1a6daf660cf39e8eec506112bbdf69181900360600190a16104e0565b6007805460ff191690555b505600a165627a7a7230582038917c43430af55048036a4dbddcf538947dee4566d10a468055f8a03bab06e50029",
  "source": "\npragma solidity ^0.4.18;\n\ninterface token {\n    function transfer(address receiver, uint amount) external;\n}\n\ncontract SenCoinCrowdsale {\n    address public beneficiary;\n    uint public fundingGoal;\n    uint public amountRaised;\n    uint public deadline;\n    uint public price;\n    token public tokenReward;\n    mapping(address => uint256) public balanceOf;\n    bool fundingGoalReached = false;\n    bool crowdsaleClosed = false;\n\n    event GoalReached(address recipient, uint totalAmountRaised);\n    event FundTransfer(address backer, uint amount, bool isContribution);\n\n    /**\n     * Constructor function\n     *\n     * Setup the owner\n     */\n    constructor(\n        address ifSuccessfulSendTo,\n        uint fundingGoalInEthers,\n        uint durationInMinutes,\n        uint etherCostOfEachToken,\n        address addressOfTokenUsedAsReward\n    ) public {\n        beneficiary = ifSuccessfulSendTo;\n        fundingGoal = fundingGoalInEthers * 1 ether;\n        deadline = now + durationInMinutes * 1 minutes;\n        price = etherCostOfEachToken * 1 ether;\n        tokenReward = token(addressOfTokenUsedAsReward);\n    }\n\n    /**\n     * Fallback function\n     *\n     * The function without name is the default function that is called whenever anyone sends funds to a contract\n     */\n    function () payable public {\n        require(!crowdsaleClosed);\n        uint amount = msg.value;\n        balanceOf[msg.sender] += amount;\n        amountRaised += amount;\n        tokenReward.transfer(msg.sender, amount / price);\n        emit FundTransfer(msg.sender, amount, true);\n    }\n\n    modifier afterDeadline() { if (now >= deadline) _; }\n\n    /**\n     * Check if goal was reached\n     *\n     * Checks if the goal or time limit has been reached and ends the campaign\n     */\n    function checkGoalReached() public afterDeadline {\n        if (amountRaised >= fundingGoal){\n            fundingGoalReached = true;\n            emit GoalReached(beneficiary, amountRaised);\n        }\n        crowdsaleClosed = true;\n    }\n\n\n    /**\n     * Withdraw the funds\n     *\n     * Checks to see if goal or time limit has been reached, and if so, and the funding goal was reached,\n     * sends the entire amount to the beneficiary. If goal was not reached, each contributor can withdraw\n     * the amount they contributed.\n     */\n    function safeWithdrawal() public afterDeadline {\n        if (!fundingGoalReached) {\n            uint amount = balanceOf[msg.sender];\n            balanceOf[msg.sender] = 0;\n            if (amount > 0) {\n                if (msg.sender.send(amount)) {\n                    emit FundTransfer(msg.sender, amount, false);\n                } else {\n                    balanceOf[msg.sender] = amount;\n                }\n            }\n        }\n\n        if (fundingGoalReached && beneficiary == msg.sender) {\n            if (beneficiary.send(amountRaised)) {\n                emit FundTransfer(beneficiary, amountRaised, false);                    \n            } else {\n                //If we fail to send the funds to beneficiary, unlock funders balance\n                fundingGoalReached = false;\n            }\n        }\n    }\n}\n",
  "sourcePath": "/Users/hansenhwang1/truffle/SenCoin/contracts/SenCoinCrowdsale.sol",
  "compiler": {
    "name": "solc",
    "version": "0.4.24+commit.e67f0147.Emscripten.clang"
  },
  "schemaVersion": "2.0.1",
  "updatedAt": "2018-08-14T17:59:57.087Z"
}